{
  "_format": "hh-sol-artifact-1",
  "contractName": "CoinFlip",
  "sourceName": "contracts/CoinFlip.sol",
  "abi": [
    {
      "inputs": [],
      "stateMutability": "nonpayable",
      "type": "constructor"
    },
    {
      "anonymous": false,
      "inputs": [
        {
          "indexed": true,
          "internalType": "address",
          "name": "player",
          "type": "address"
        },
        {
          "indexed": false,
          "internalType": "bool",
          "name": "outcome",
          "type": "bool"
        }
      ],
      "name": "CoinFlipped",
      "type": "event"
    },
    {
      "inputs": [],
      "name": "flipCoin",
      "outputs": [
        {
          "internalType": "bool",
          "name": "",
          "type": "bool"
        }
      ],
      "stateMutability": "nonpayable",
      "type": "function"
    },
    {
      "inputs": [],
      "name": "owner",
      "outputs": [
        {
          "internalType": "address",
          "name": "",
          "type": "address"
        }
      ],
      "stateMutability": "view",
      "type": "function"
    }
  ],
  "bytecode": "0x608060405234801561001057600080fd5b50336000806101000a81548173ffffffffffffffffffffffffffffffffffffffff021916908373ffffffffffffffffffffffffffffffffffffffff16021790555061031c806100606000396000f3fe608060405234801561001057600080fd5b50600436106100365760003560e01c8063799ae2231461003b5780638da5cb5b14610059575b600080fd5b610043610077565b604051610050919061015f565b60405180910390f35b6100616100df565b60405161006e91906101bb565b60405180910390f35b6000806001610084610103565b60ff161490503373ffffffffffffffffffffffffffffffffffffffff167fe9b3debf173058c0ec534d6e24a97746b8a148fe704a55944e39ed8333a12b5c826040516100d0919061015f565b60405180910390a28091505090565b60008054906101000a900473ffffffffffffffffffffffffffffffffffffffff1681565b6000600242443360405160200161011c93929190610249565b6040516020818303038152906040528051906020012060001c61013f91906102b5565b905090565b60008115159050919050565b61015981610144565b82525050565b60006020820190506101746000830184610150565b92915050565b600073ffffffffffffffffffffffffffffffffffffffff82169050919050565b60006101a58261017a565b9050919050565b6101b58161019a565b82525050565b60006020820190506101d060008301846101ac565b92915050565b6000819050919050565b6000819050919050565b6101fb6101f6826101d6565b6101e0565b82525050565b60008160601b9050919050565b600061021982610201565b9050919050565b600061022b8261020e565b9050919050565b61024361023e8261019a565b610220565b82525050565b600061025582866101ea565b60208201915061026582856101ea565b6020820191506102758284610232565b601482019150819050949350505050565b7f4e487b7100000000000000000000000000000000000000000000000000000000600052601260045260246000fd5b60006102c0826101d6565b91506102cb836101d6565b9250826102db576102da610286565b5b82820690509291505056fea2646970667358221220883c93425c4ede2f9f7b73101a8507deec9618616977b2f509fefabc23f661d764736f6c63430008180033",
  "linkReferences": {},
  "deployedLinkReferences": {}
}